:1000000000008312031341309F0083160313013055
:1000100081000E309F00051486018813081388168E
:10002000870183120313860188170030860036206B
:1000300001308600362002308600362004308600EB
:1000400036200830860036208813081708308600CE
:1000500036201030860036202030860036200130D1
:10006000860036200813881E14283A280B1D3628CF
:100070000B1108001F151F193B28230887001E08B5
:10008000A000A00CA00CA013201320086B20860059
:10009000A200383C031951282208763C031956283F
:1000A0006228081388170130A1003A28881308171E
:1000B0002108013C03195D283A280230A1000814E8
:1000C000A30A3A282108023C031967283A2800307D
:1000D000A10008103A2882070034003400340034AC
:1000E0000034003400340034003400340034003470
:1000F0000034003400340034383406345B344F3478
:1001000066346D347D3407347F3476340034003403
:10011000003400340034003400340034003400343F
:10012000003400340034003400340034003400342F
:10013000003400340034003400340034003400341F
:10014000003400340034003400340034003400340F
:080150000034003400340034D7
:02400E00713F00
:00000001FF
