:1000000000008312031341309F0083160313013055
:1000100081000E309F000514860188018701851438
:1000200083120313860188170030860035200130C3
:1000300086003520023086003520043086003520C9
:1000400008308600352088130817083086003520D0
:1000500010308600352020308600352001308600A3
:1000600035200813851C132839280B1D35280B1142
:1000700008001F151F193A28230887001E08A00032
:10008000A00CA00CA013201320086A208600A20058
:10009000383C031950282208763C0319552861285A
:1000A000081388170130A100392888130817210880
:1000B000013C03195C2839280230A1000814A30A66
:1000C00039282108023C0319662839280030A1008C
:1000D000081039288207003400340034003400341A
:1000E0000034003400340034003400340034003470
:1000F000003400340034383406345B344F34663412
:100100006D347D3407347F34763400340034003469
:10011000003400340034003400340034003400343F
:10012000003400340034003400340034003400342F
:10013000003400340034003400340034003400341F
:10014000003400340034003400340034003400340F
:060150000034003400340D
:02400E00713F00
:00000001FF
