:1000000000008312031341309F0083160313013055
:1000100081000E309F00051486018813081388168E
:1000200087018312031386010817881300308600A6
:100030003720013086003720023086003720043018
:1000400086003720083086003720881708130830CC
:100050008600372010308600372020308600372079
:100060000130860037200817881E14283B280B1DF6
:1000700037280B1108001F151F193C28230887007B
:100080001E08A000A00CA00CA013201320086A20BA
:100090008600A200383C031952282208763C031936
:1000A00057286228081788130130A1003B288817B9
:1000B00008132108013C03195E283B280230A100E7
:1000C000A30A3B282108023C031967283B2800307B
:1000D000A1003B288207003400340034003400348F
:1000E0000034003400340034003400340034003470
:1000F000003400340034383406345B344F34663412
:100100006D347D3407347F34763400340034003469
:10011000003400340034003400340034003400343F
:10012000003400340034003400340034003400342F
:10013000003400340034003400340034003400341F
:10014000003400340034003400340034003400340F
:060150000034003400340D
:02400E00713F00
:00000001FF
